{
  "_format": "hh-sol-artifact-1",
  "contractName": "LeafDAOGovernorBravoDelegate",
  "sourceName": "contracts/LeafDaoGovernorBravo.sol",
  "abi": [
    {
      "anonymous": false,
      "inputs": [
        {
          "indexed": false,
          "internalType": "uint8",
          "name": "version",
          "type": "uint8"
        }
      ],
      "name": "Initialized",
      "type": "event"
    },
    {
      "anonymous": false,
      "inputs": [
        {
          "indexed": false,
          "internalType": "address",
          "name": "oldAdmin",
          "type": "address"
        },
        {
          "indexed": false,
          "internalType": "address",
          "name": "newAdmin",
          "type": "address"
        }
      ],
      "name": "NewAdmin",
      "type": "event"
    },
    {
      "anonymous": false,
      "inputs": [
        {
          "indexed": false,
          "internalType": "address",
          "name": "oldImplementation",
          "type": "address"
        },
        {
          "indexed": false,
          "internalType": "address",
          "name": "newImplementation",
          "type": "address"
        }
      ],
      "name": "NewImplementation",
      "type": "event"
    },
    {
      "anonymous": false,
      "inputs": [
        {
          "indexed": false,
          "internalType": "address",
          "name": "oldPendingAdmin",
          "type": "address"
        },
        {
          "indexed": false,
          "internalType": "address",
          "name": "newPendingAdmin",
          "type": "address"
        }
      ],
      "name": "NewPendingAdmin",
      "type": "event"
    },
    {
      "anonymous": false,
      "inputs": [
        {
          "indexed": false,
          "internalType": "uint256",
          "name": "id",
          "type": "uint256"
        }
      ],
      "name": "ProposalCanceled",
      "type": "event"
    },
    {
      "anonymous": false,
      "inputs": [
        {
          "indexed": false,
          "internalType": "uint256",
          "name": "id",
          "type": "uint256"
        },
        {
          "indexed": false,
          "internalType": "address",
          "name": "proposer",
          "type": "address"
        },
        {
          "indexed": false,
          "internalType": "address[]",
          "name": "targets",
          "type": "address[]"
        },
        {
          "indexed": false,
          "internalType": "uint256[]",
          "name": "values",
          "type": "uint256[]"
        },
        {
          "indexed": false,
          "internalType": "string[]",
          "name": "signatures",
          "type": "string[]"
        },
        {
          "indexed": false,
          "internalType": "bytes[]",
          "name": "calldatas",
          "type": "bytes[]"
        },
        {
          "indexed": false,
          "internalType": "string",
          "name": "description",
          "type": "string"
        }
      ],
      "name": "ProposalCreated",
      "type": "event"
    },
    {
      "anonymous": false,
      "inputs": [
        {
          "indexed": false,
          "internalType": "uint256",
          "name": "id",
          "type": "uint256"
        }
      ],
      "name": "ProposalExecuted",
      "type": "event"
    },
    {
      "anonymous": false,
      "inputs": [
        {
          "indexed": false,
          "internalType": "uint256",
          "name": "id",
          "type": "uint256"
        },
        {
          "indexed": false,
          "internalType": "uint256",
          "name": "eta",
          "type": "uint256"
        }
      ],
      "name": "ProposalQueued",
      "type": "event"
    },
    {
      "anonymous": false,
      "inputs": [
        {
          "indexed": false,
          "internalType": "uint256",
          "name": "oldProposalThreshold",
          "type": "uint256"
        },
        {
          "indexed": false,
          "internalType": "uint256",
          "name": "newProposalThreshold",
          "type": "uint256"
        }
      ],
      "name": "ProposalThresholdSet",
      "type": "event"
    },
    {
      "anonymous": false,
      "inputs": [
        {
          "indexed": true,
          "internalType": "address",
          "name": "voter",
          "type": "address"
        },
        {
          "indexed": false,
          "internalType": "uint256",
          "name": "proposalId",
          "type": "uint256"
        },
        {
          "indexed": false,
          "internalType": "uint8",
          "name": "support",
          "type": "uint8"
        },
        {
          "indexed": false,
          "internalType": "uint256",
          "name": "votes",
          "type": "uint256"
        },
        {
          "indexed": false,
          "internalType": "string",
          "name": "reason",
          "type": "string"
        }
      ],
      "name": "VoteCast",
      "type": "event"
    },
    {
      "anonymous": false,
      "inputs": [
        {
          "indexed": false,
          "internalType": "uint256",
          "name": "oldVotingDelay",
          "type": "uint256"
        },
        {
          "indexed": false,
          "internalType": "uint256",
          "name": "newVotingDelay",
          "type": "uint256"
        }
      ],
      "name": "VotingDelaySet",
      "type": "event"
    },
    {
      "anonymous": false,
      "inputs": [
        {
          "indexed": false,
          "internalType": "uint256",
          "name": "oldVotingPeriod",
          "type": "uint256"
        },
        {
          "indexed": false,
          "internalType": "uint256",
          "name": "newVotingPeriod",
          "type": "uint256"
        }
      ],
      "name": "VotingPeriodSet",
      "type": "event"
    },
    {
      "anonymous": false,
      "inputs": [
        {
          "indexed": false,
          "internalType": "address",
          "name": "account",
          "type": "address"
        },
        {
          "indexed": false,
          "internalType": "uint256",
          "name": "expiration",
          "type": "uint256"
        }
      ],
      "name": "WhitelistAccountExpirationSet",
      "type": "event"
    },
    {
      "anonymous": false,
      "inputs": [
        {
          "indexed": false,
          "internalType": "address",
          "name": "oldGuardian",
          "type": "address"
        },
        {
          "indexed": false,
          "internalType": "address",
          "name": "newGuardian",
          "type": "address"
        }
      ],
      "name": "WhitelistGuardianSet",
      "type": "event"
    },
    {
      "inputs": [],
      "name": "BALLOT_TYPEHASH",
      "outputs": [
        {
          "internalType": "bytes32",
          "name": "",
          "type": "bytes32"
        }
      ],
      "stateMutability": "view",
      "type": "function"
    },
    {
      "inputs": [],
      "name": "DOMAIN_TYPEHASH",
      "outputs": [
        {
          "internalType": "bytes32",
          "name": "",
          "type": "bytes32"
        }
      ],
      "stateMutability": "view",
      "type": "function"
    },
    {
      "inputs": [],
      "name": "MAX_PROPOSAL_THRESHOLD",
      "outputs": [
        {
          "internalType": "uint256",
          "name": "",
          "type": "uint256"
        }
      ],
      "stateMutability": "view",
      "type": "function"
    },
    {
      "inputs": [],
      "name": "MAX_VOTING_DELAY",
      "outputs": [
        {
          "internalType": "uint256",
          "name": "",
          "type": "uint256"
        }
      ],
      "stateMutability": "view",
      "type": "function"
    },
    {
      "inputs": [],
      "name": "MAX_VOTING_PERIOD",
      "outputs": [
        {
          "internalType": "uint256",
          "name": "",
          "type": "uint256"
        }
      ],
      "stateMutability": "view",
      "type": "function"
    },
    {
      "inputs": [],
      "name": "MIN_PROPOSAL_THRESHOLD",
      "outputs": [
        {
          "internalType": "uint256",
          "name": "",
          "type": "uint256"
        }
      ],
      "stateMutability": "view",
      "type": "function"
    },
    {
      "inputs": [],
      "name": "MIN_VOTING_DELAY",
      "outputs": [
        {
          "internalType": "uint256",
          "name": "",
          "type": "uint256"
        }
      ],
      "stateMutability": "view",
      "type": "function"
    },
    {
      "inputs": [],
      "name": "MIN_VOTING_PERIOD",
      "outputs": [
        {
          "internalType": "uint256",
          "name": "",
          "type": "uint256"
        }
      ],
      "stateMutability": "view",
      "type": "function"
    },
    {
      "inputs": [],
      "name": "_acceptAdmin",
      "outputs": [],
      "stateMutability": "nonpayable",
      "type": "function"
    },
    {
      "inputs": [
        {
          "internalType": "address",
          "name": "governorAlpha",
          "type": "address"
        }
      ],
      "name": "_initiate",
      "outputs": [],
      "stateMutability": "nonpayable",
      "type": "function"
    },
    {
      "inputs": [
        {
          "internalType": "address",
          "name": "newPendingAdmin",
          "type": "address"
        }
      ],
      "name": "_setPendingAdmin",
      "outputs": [],
      "stateMutability": "nonpayable",
      "type": "function"
    },
    {
      "inputs": [
        {
          "internalType": "uint256",
          "name": "newProposalThreshold",
          "type": "uint256"
        }
      ],
      "name": "_setProposalThreshold",
      "outputs": [],
      "stateMutability": "nonpayable",
      "type": "function"
    },
    {
      "inputs": [
        {
          "internalType": "uint256",
          "name": "newVotingDelay",
          "type": "uint256"
        }
      ],
      "name": "_setVotingDelay",
      "outputs": [],
      "stateMutability": "nonpayable",
      "type": "function"
    },
    {
      "inputs": [
        {
          "internalType": "uint256",
          "name": "newVotingPeriod",
          "type": "uint256"
        }
      ],
      "name": "_setVotingPeriod",
      "outputs": [],
      "stateMutability": "nonpayable",
      "type": "function"
    },
    {
      "inputs": [
        {
          "internalType": "address",
          "name": "account",
          "type": "address"
        },
        {
          "internalType": "uint256",
          "name": "expiration",
          "type": "uint256"
        }
      ],
      "name": "_setWhitelistAccountExpiration",
      "outputs": [],
      "stateMutability": "nonpayable",
      "type": "function"
    },
    {
      "inputs": [
        {
          "internalType": "address",
          "name": "account",
          "type": "address"
        }
      ],
      "name": "_setWhitelistGuardian",
      "outputs": [],
      "stateMutability": "nonpayable",
      "type": "function"
    },
    {
      "inputs": [],
      "name": "admin",
      "outputs": [
        {
          "internalType": "address",
          "name": "",
          "type": "address"
        }
      ],
      "stateMutability": "view",
      "type": "function"
    },
    {
      "inputs": [
        {
          "internalType": "uint256",
          "name": "proposalId",
          "type": "uint256"
        }
      ],
      "name": "cancel",
      "outputs": [],
      "stateMutability": "nonpayable",
      "type": "function"
    },
    {
      "inputs": [
        {
          "internalType": "uint256",
          "name": "proposalId",
          "type": "uint256"
        },
        {
          "internalType": "uint8",
          "name": "support",
          "type": "uint8"
        },
        {
          "internalType": "uint256",
          "name": "snapshotBalance",
          "type": "uint256"
        },
        {
          "internalType": "bytes32[]",
          "name": "proof",
          "type": "bytes32[]"
        }
      ],
      "name": "castVote",
      "outputs": [],
      "stateMutability": "nonpayable",
      "type": "function"
    },
    {
      "inputs": [
        {
          "internalType": "uint256",
          "name": "proposalId",
          "type": "uint256"
        },
        {
          "internalType": "uint8",
          "name": "support",
          "type": "uint8"
        },
        {
          "internalType": "uint256",
          "name": "snapshotBalance",
          "type": "uint256"
        },
        {
          "internalType": "bytes32[]",
          "name": "proof",
          "type": "bytes32[]"
        },
        {
          "internalType": "uint8",
          "name": "v",
          "type": "uint8"
        },
        {
          "internalType": "bytes32",
          "name": "r",
          "type": "bytes32"
        },
        {
          "internalType": "bytes32",
          "name": "s",
          "type": "bytes32"
        }
      ],
      "name": "castVoteBySig",
      "outputs": [],
      "stateMutability": "nonpayable",
      "type": "function"
    },
    {
      "inputs": [
        {
          "internalType": "uint256",
          "name": "proposalId",
          "type": "uint256"
        },
        {
          "internalType": "uint8",
          "name": "support",
          "type": "uint8"
        },
        {
          "internalType": "uint256",
          "name": "snapshotBalance",
          "type": "uint256"
        },
        {
          "internalType": "bytes32[]",
          "name": "proof",
          "type": "bytes32[]"
        },
        {
          "internalType": "string",
          "name": "reason",
          "type": "string"
        }
      ],
      "name": "castVoteWithReason",
      "outputs": [],
      "stateMutability": "nonpayable",
      "type": "function"
    },
    {
      "inputs": [
        {
          "internalType": "uint256",
          "name": "proposalId",
          "type": "uint256"
        }
      ],
      "name": "execute",
      "outputs": [],
      "stateMutability": "payable",
      "type": "function"
    },
    {
      "inputs": [
        {
          "internalType": "uint256",
          "name": "proposalId",
          "type": "uint256"
        }
      ],
      "name": "getActions",
      "outputs": [
        {
          "internalType": "address[]",
          "name": "targets",
          "type": "address[]"
        },
        {
          "internalType": "uint256[]",
          "name": "values",
          "type": "uint256[]"
        },
        {
          "internalType": "string[]",
          "name": "signatures",
          "type": "string[]"
        },
        {
          "internalType": "bytes[]",
          "name": "calldatas",
          "type": "bytes[]"
        }
      ],
      "stateMutability": "view",
      "type": "function"
    },
    {
      "inputs": [
        {
          "internalType": "uint256",
          "name": "proposalId",
          "type": "uint256"
        },
        {
          "internalType": "address",
          "name": "voter",
          "type": "address"
        }
      ],
      "name": "getReceipt",
      "outputs": [
        {
          "components": [
            {
              "internalType": "bool",
              "name": "hasVoted",
              "type": "bool"
            },
            {
              "internalType": "uint8",
              "name": "support",
              "type": "uint8"
            },
            {
              "internalType": "uint256",
              "name": "votes",
              "type": "uint256"
            }
          ],
          "internalType": "struct GovernorBravoDelegateStorageV1.Receipt",
          "name": "",
          "type": "tuple"
        }
      ],
      "stateMutability": "view",
      "type": "function"
    },
    {
      "inputs": [],
      "name": "implementation",
      "outputs": [
        {
          "internalType": "address",
          "name": "",
          "type": "address"
        }
      ],
      "stateMutability": "view",
      "type": "function"
    },
    {
      "inputs": [],
      "name": "initialProposalId",
      "outputs": [
        {
          "internalType": "uint256",
          "name": "",
          "type": "uint256"
        }
      ],
      "stateMutability": "view",
      "type": "function"
    },
    {
      "inputs": [
        {
          "internalType": "address",
          "name": "timelock_",
          "type": "address"
        },
        {
          "internalType": "address",
          "name": "ldao_",
          "type": "address"
        },
        {
          "internalType": "uint256",
          "name": "votingPeriod_",
          "type": "uint256"
        },
        {
          "internalType": "uint256",
          "name": "votingDelay_",
          "type": "uint256"
        },
        {
          "internalType": "uint256",
          "name": "proposalThreshold_",
          "type": "uint256"
        }
      ],
      "name": "initialize",
      "outputs": [],
      "stateMutability": "nonpayable",
      "type": "function"
    },
    {
      "inputs": [
        {
          "internalType": "address",
          "name": "account",
          "type": "address"
        }
      ],
      "name": "isWhitelisted",
      "outputs": [
        {
          "internalType": "bool",
          "name": "",
          "type": "bool"
        }
      ],
      "stateMutability": "view",
      "type": "function"
    },
    {
      "inputs": [
        {
          "internalType": "address",
          "name": "",
          "type": "address"
        }
      ],
      "name": "latestProposalIds",
      "outputs": [
        {
          "internalType": "uint256",
          "name": "",
          "type": "uint256"
        }
      ],
      "stateMutability": "view",
      "type": "function"
    },
    {
      "inputs": [],
      "name": "ldao",
      "outputs": [
        {
          "internalType": "contract CompInterface",
          "name": "",
          "type": "address"
        }
      ],
      "stateMutability": "view",
      "type": "function"
    },
    {
      "inputs": [],
      "name": "name",
      "outputs": [
        {
          "internalType": "string",
          "name": "",
          "type": "string"
        }
      ],
      "stateMutability": "view",
      "type": "function"
    },
    {
      "inputs": [],
      "name": "pendingAdmin",
      "outputs": [
        {
          "internalType": "address",
          "name": "",
          "type": "address"
        }
      ],
      "stateMutability": "view",
      "type": "function"
    },
    {
      "inputs": [],
      "name": "proposalCount",
      "outputs": [
        {
          "internalType": "uint256",
          "name": "",
          "type": "uint256"
        }
      ],
      "stateMutability": "view",
      "type": "function"
    },
    {
      "inputs": [],
      "name": "proposalMaxOperations",
      "outputs": [
        {
          "internalType": "uint256",
          "name": "",
          "type": "uint256"
        }
      ],
      "stateMutability": "view",
      "type": "function"
    },
    {
      "inputs": [],
      "name": "proposalThreshold",
      "outputs": [
        {
          "internalType": "uint256",
          "name": "",
          "type": "uint256"
        }
      ],
      "stateMutability": "view",
      "type": "function"
    },
    {
      "inputs": [
        {
          "internalType": "uint256",
          "name": "",
          "type": "uint256"
        }
      ],
      "name": "proposals",
      "outputs": [
        {
          "internalType": "uint256",
          "name": "id",
          "type": "uint256"
        },
        {
          "internalType": "address",
          "name": "proposer",
          "type": "address"
        },
        {
          "internalType": "uint256",
          "name": "eta",
          "type": "uint256"
        },
        {
          "internalType": "uint256",
          "name": "startBlock",
          "type": "uint256"
        },
        {
          "internalType": "uint256",
          "name": "endBlock",
          "type": "uint256"
        },
        {
          "internalType": "uint256",
          "name": "forVotes",
          "type": "uint256"
        },
        {
          "internalType": "uint256",
          "name": "againstVotes",
          "type": "uint256"
        },
        {
          "internalType": "uint256",
          "name": "abstainVotes",
          "type": "uint256"
        },
        {
          "internalType": "bool",
          "name": "canceled",
          "type": "bool"
        },
        {
          "internalType": "bool",
          "name": "executed",
          "type": "bool"
        },
        {
          "internalType": "uint256",
          "name": "snapshotBlockNumber",
          "type": "uint256"
        },
        {
          "internalType": "bytes32",
          "name": "merkleRoot",
          "type": "bytes32"
        }
      ],
      "stateMutability": "view",
      "type": "function"
    },
    {
      "inputs": [
        {
          "internalType": "address[]",
          "name": "targets",
          "type": "address[]"
        },
        {
          "internalType": "uint256[]",
          "name": "values",
          "type": "uint256[]"
        },
        {
          "internalType": "string[]",
          "name": "signatures",
          "type": "string[]"
        },
        {
          "internalType": "bytes[]",
          "name": "calldatas",
          "type": "bytes[]"
        },
        {
          "internalType": "string",
          "name": "description",
          "type": "string"
        },
        {
          "internalType": "uint256",
          "name": "snapshotBlockNumber",
          "type": "uint256"
        },
        {
          "internalType": "bytes32",
          "name": "merkleRoot",
          "type": "bytes32"
        }
      ],
      "name": "propose",
      "outputs": [
        {
          "internalType": "uint256",
          "name": "",
          "type": "uint256"
        }
      ],
      "stateMutability": "nonpayable",
      "type": "function"
    },
    {
      "inputs": [
        {
          "internalType": "uint256",
          "name": "proposalId",
          "type": "uint256"
        }
      ],
      "name": "queue",
      "outputs": [],
      "stateMutability": "nonpayable",
      "type": "function"
    },
    {
      "inputs": [],
      "name": "quorumVotes",
      "outputs": [
        {
          "internalType": "uint256",
          "name": "",
          "type": "uint256"
        }
      ],
      "stateMutability": "view",
      "type": "function"
    },
    {
      "inputs": [
        {
          "internalType": "uint256",
          "name": "proposalId",
          "type": "uint256"
        }
      ],
      "name": "state",
      "outputs": [
        {
          "internalType": "enum GovernorBravoDelegateStorageV1.ProposalState",
          "name": "",
          "type": "uint8"
        }
      ],
      "stateMutability": "view",
      "type": "function"
    },
    {
      "inputs": [],
      "name": "timelock",
      "outputs": [
        {
          "internalType": "contract TimelockInterface",
          "name": "",
          "type": "address"
        }
      ],
      "stateMutability": "view",
      "type": "function"
    },
    {
      "inputs": [],
      "name": "votingDelay",
      "outputs": [
        {
          "internalType": "uint256",
          "name": "",
          "type": "uint256"
        }
      ],
      "stateMutability": "view",
      "type": "function"
    },
    {
      "inputs": [],
      "name": "votingPeriod",
      "outputs": [
        {
          "internalType": "uint256",
          "name": "",
          "type": "uint256"
        }
      ],
      "stateMutability": "view",
      "type": "function"
    },
    {
      "inputs": [
        {
          "internalType": "address",
          "name": "",
          "type": "address"
        }
      ],
      "name": "whitelistAccountExpirations",
      "outputs": [
        {
          "internalType": "uint256",
          "name": "",
          "type": "uint256"
        }
      ],
      "stateMutability": "view",
      "type": "function"
    },
    {
      "inputs": [],
      "name": "whitelistGuardian",
      "outputs": [
        {
          "internalType": "address",
          "name": "",
          "type": "address"
        }
      ],
      "stateMutability": "view",
      "type": "function"
    }
  ],
  "bytecode": "0x608060405234801561001057600080fd5b50614782806100206000396000f3fe6080604052600436106102f25760003560e01c806367cdd73e1161018f578063d33219b4116100e1578063e9c714f21161008a578063f9d28b8011610064578063f9d28b80146109ac578063fc4eee42146109cc578063fe0d94c1146109e257600080fd5b8063e9c714f214610957578063ea1ea5cd1461096c578063f851a4401461098c57600080fd5b8063deaaa7cc116100bb578063deaaa7cc146108c7578063e23a9a52146108fb578063e48083fe1461094257600080fd5b8063d33219b414610871578063da35c66414610891578063ddf0b009146108a757600080fd5b8063a64e024a11610143578063b71d1a0c1161011d578063b71d1a0c14610811578063c5a8425d14610831578063d13f90b41461085157600080fd5b8063a64e024a146107ce578063b1126263146107e5578063b58131b0146107fb57600080fd5b80637bdbe4d0116101745780637bdbe4d014610779578063995333651461078e578063a01ff54e146107ae57600080fd5b806367cdd73e1461073c578063791f5d231461075c57600080fd5b806325fd935a116102485780633af32abf116101fc57806340e58ee5116101d657806340e58ee5146106dc5780634d6733d2146106fc5780635c60da1b1461071c57600080fd5b80633af32abf146106475780633b1e305e1461068f5780633e4f49e6146106af57600080fd5b8063328dd9821161022d578063328dd982146105d457806338bd0dda146106045780633932abb11461063157600080fd5b806325fd935a1461059657806326782247146105b457600080fd5b806317977c61116102aa57806320606b701161028457806320606b701461052e578063215809ca1461056257806324bc1a641461057857600080fd5b806317977c61146104c157806317ba1b8b146104ee5780631dfb1b5a1461050e57600080fd5b806306fdde03116102db57806306fdde03146104115780630cc89a07146104675780630ea2d98c1461049f57600080fd5b8063013cf08b146102f757806302a251a3146103ed575b600080fd5b34801561030357600080fd5b50610383610312366004613ae0565b600a60208190526000918252604090912080546001820154600283015460078401546008850154600986015496860154600b870154600c880154600d890154600e9099015497996001600160a01b039097169895979496939593949293919260ff808316936101009093041691908c565b604080519c8d526001600160a01b03909b1660208d0152998b019890985260608a0196909652608089019490945260a088019290925260c087015260e086015215156101008501521515610120840152610140830152610160820152610180015b60405180910390f35b3480156103f957600080fd5b5061040360045481565b6040519081526020016103e4565b34801561041d57600080fd5b5061045a6040518060400160405280601781526020017f4c6561662044414f20476f7665726e6f7220427261766f00000000000000000081525081565b6040516103e49190613b49565b34801561047357600080fd5b50600954610487906001600160a01b031681565b6040516001600160a01b0390911681526020016103e4565b3480156104ab57600080fd5b506104bf6104ba366004613ae0565b6109f5565b005b3480156104cd57600080fd5b506104036104dc366004613b78565b600b6020526000908152604090205481565b3480156104fa57600080fd5b506104bf610509366004613ae0565b610b47565b34801561051a57600080fd5b506104bf610529366004613ae0565b610c9c565b34801561053a57600080fd5b506104037f8cad95687ba82c2ce50e74f7b754645e5117c3a5bec8151c0726d5857980a86681565b34801561056e57600080fd5b5061040361168081565b34801561058457600080fd5b506104036954b40b1f852bda00000081565b3480156105a257600080fd5b5061040369152d02c7e14af680000081565b3480156105c057600080fd5b50600154610487906001600160a01b031681565b3480156105e057600080fd5b506105f46105ef366004613ae0565b610dcc565b6040516103e49493929190613c5f565b34801561061057600080fd5b5061040361061f366004613b78565b600c6020526000908152604090205481565b34801561063d57600080fd5b5061040360035481565b34801561065357600080fd5b5061067f610662366004613b78565b6001600160a01b03166000908152600c6020526040902054421090565b60405190151581526020016103e4565b34801561069b57600080fd5b506104036106aa366004613f85565b61105d565b3480156106bb57600080fd5b506106cf6106ca366004613ae0565b6117a7565b6040516103e49190614080565b3480156106e857600080fd5b506104bf6106f7366004613ae0565b61198d565b34801561070857600080fd5b506104bf6107173660046140a8565b611e3d565b34801561072857600080fd5b50600254610487906001600160a01b031681565b34801561074857600080fd5b506104bf6107573660046140e3565b611f23565b34801561076857600080fd5b50610403683635c9adc5dea0000081565b34801561078557600080fd5b50610403600a81565b34801561079a57600080fd5b506104bf6107a9366004613b78565b61223a565b3480156107ba57600080fd5b506104bf6107c9366004614168565b612314565b3480156107da57600080fd5b5061040362013b0081565b3480156107f157600080fd5b50610403619d8081565b34801561080757600080fd5b5061040360055481565b34801561081d57600080fd5b506104bf61082c366004613b78565b6123e3565b34801561083d57600080fd5b50600d54610487906001600160a01b031681565b34801561085d57600080fd5b506104bf61086c3660046141c9565b6124aa565b34801561087d57600080fd5b50600854610487906001600160a01b031681565b34801561089d57600080fd5b5061040360075481565b3480156108b357600080fd5b506104bf6108c2366004613ae0565b612880565b3480156108d357600080fd5b506104037f150214d74d59b7d1e90c73fc22ef3d991dd0a76b046543d4d80ab92d2a50328f81565b34801561090757600080fd5b5061091b610916366004614216565b612bbe565b6040805182511515815260208084015160ff169082015291810151908201526060016103e4565b34801561094e57600080fd5b50610403600181565b34801561096357600080fd5b506104bf612c2e565b34801561097857600080fd5b506104bf610987366004614242565b612d67565b34801561099857600080fd5b50600054610487906001600160a01b031681565b3480156109b857600080fd5b506104bf6109c7366004613b78565b612e24565b3480156109d857600080fd5b5061040360065481565b6104bf6109f0366004613ae0565b612fff565b6000546001600160a01b03163314610a7a5760405162461bcd60e51b815260206004820152602b60248201527f476f7665726e6f72427261766f3a3a5f736574566f74696e67506572696f643a60448201527f2061646d696e206f6e6c7900000000000000000000000000000000000000000060648201526084015b60405180910390fd5b6116808110158015610a8f575062013b008111155b610b015760405162461bcd60e51b815260206004820152603660248201527f476f7665726e6f72427261766f3a3a5f736574566f74696e67506572696f643a60448201527f20696e76616c696420766f74696e6720706572696f64000000000000000000006064820152608401610a71565b600480549082905560408051828152602081018490527f7e3f7f0708a84de9203036abaa450dccc85ad5ff52f78c170f3edb55cf5e882891015b60405180910390a15050565b6000546001600160a01b03163314610bc75760405162461bcd60e51b815260206004820152603060248201527f476f7665726e6f72427261766f3a3a5f73657450726f706f73616c546872657360448201527f686f6c643a2061646d696e206f6e6c79000000000000000000000000000000006064820152608401610a71565b683635c9adc5dea000008110158015610bea575069152d02c7e14af68000008111155b610c5e576040805162461bcd60e51b81526020600482015260248101919091527f476f7665726e6f72427261766f3a3a5f73657450726f706f73616c546872657360448201527f686f6c643a20696e76616c69642070726f706f73616c207468726573686f6c646064820152608401610a71565b600580549082905560408051828152602081018490527fccb45da8d5717e6c4544694297c4ba5cf151d455c9bb0ed4fc7a38411bc054619101610b3b565b6000546001600160a01b03163314610d095760405162461bcd60e51b815260206004820152602a60248201527f476f7665726e6f72427261766f3a3a5f736574566f74696e6744656c61793a2060448201526961646d696e206f6e6c7960b01b6064820152608401610a71565b60018110158015610d1c5750619d808111155b610d8e5760405162461bcd60e51b815260206004820152603460248201527f476f7665726e6f72427261766f3a3a5f736574566f74696e6744656c61793a2060448201527f696e76616c696420766f74696e672064656c61790000000000000000000000006064820152608401610a71565b600380549082905560408051828152602081018490527fc565b045403dc03c2eea82b81a0465edad9e2e7fc4d97e11421c209da93d7a939101610b3b565b6060806060806000600a600087815260200190815260200160002090508060030181600401826005018360060183805480602002602001604051908101604052809291908181526020018280548015610e4e57602002820191906000526020600020905b81546001600160a01b03168152600190910190602001808311610e30575b5050505050935082805480602002602001604051908101604052809291908181526020018280548015610ea057602002820191906000526020600020905b815481526020019060010190808311610e8c575b5050505050925081805480602002602001604051908101604052809291908181526020016000905b82821015610f74578382906000526020600020018054610ee7906142fc565b80601f0160208091040260200160405190810160405280929190818152602001828054610f13906142fc565b8015610f605780601f10610f3557610100808354040283529160200191610f60565b820191906000526020600020905b815481529060010190602001808311610f4357829003601f168201915b505050505081526020019060010190610ec8565b50505050915080805480602002602001604051908101604052809291908181526020016000905b82821015611047578382906000526020600020018054610fba906142fc565b80601f0160208091040260200160405190810160405280929190818152602001828054610fe6906142fc565b80156110335780601f1061100857610100808354040283529160200191611033565b820191906000526020600020905b81548152906001019060200180831161101657829003601f168201915b505050505081526020019060010190610f9b565b5050505090509450945094509450509193509193565b60006006546000036110d75760405162461bcd60e51b815260206004820152603160248201527f476f7665726e6f72427261766f3a3a70726f706f73653a20476f7665726e6f7260448201527f20427261766f206e6f74206163746976650000000000000000000000000000006064820152608401610a71565b6005546009546001600160a01b031663782d6fe1336110f7436001613254565b6040517fffffffff0000000000000000000000000000000000000000000000000000000060e085901b1681526001600160a01b0390921660048301526024820152604401602060405180830381865afa158015611158573d6000803e3d6000fd5b505050506040513d601f19601f8201168201806040525081019061117c9190614330565b6bffffffffffffffffffffffff1611806111a45750336000908152600c602052604090205442105b6112165760405162461bcd60e51b815260206004820152603f60248201527f476f7665726e6f72427261766f3a3a70726f706f73653a2070726f706f73657260448201527f20766f7465732062656c6f772070726f706f73616c207468726573686f6c64006064820152608401610a71565b86518851148015611228575085518851145b8015611235575084518851145b6112ce5760405162461bcd60e51b8152602060048201526044602482018190527f476f7665726e6f72427261766f3a3a70726f706f73653a2070726f706f73616c908201527f2066756e6374696f6e20696e666f726d6174696f6e206172697479206d69736d60648201527f6174636800000000000000000000000000000000000000000000000000000000608482015260a401610a71565b87516000036113455760405162461bcd60e51b815260206004820152602c60248201527f476f7665726e6f72427261766f3a3a70726f706f73653a206d7573742070726f60448201527f7669646520616374696f6e7300000000000000000000000000000000000000006064820152608401610a71565b600a885111156113bd5760405162461bcd60e51b815260206004820152602860248201527f476f7665726e6f72427261766f3a3a70726f706f73653a20746f6f206d616e7960448201527f20616374696f6e730000000000000000000000000000000000000000000000006064820152608401610a71565b336000908152600b6020526040902054801561153c5760006113de826117a7565b905060018160078111156113f4576113f461406a565b0361148d5760405162461bcd60e51b815260206004820152605860248201527f476f7665726e6f72427261766f3a3a70726f706f73653a206f6e65206c69766560448201527f2070726f706f73616c207065722070726f706f7365722c20666f756e6420616e60648201527f20616c7265616479206163746976652070726f706f73616c0000000000000000608482015260a401610a71565b60008160078111156114a1576114a161406a565b0361153a5760405162461bcd60e51b815260206004820152605960248201527f476f7665726e6f72427261766f3a3a70726f706f73653a206f6e65206c69766560448201527f2070726f706f73616c207065722070726f706f7365722c20666f756e6420616e60648201527f20616c72656164792070656e64696e672070726f706f73616c00000000000000608482015260a401610a71565b505b600061154a436003546132b7565b9050600061155a826004546132b7565b60078054919250600061156c83614374565b90915550506007546000818152600a602052604090208054156115f75760405162461bcd60e51b815260206004820152602b60248201527f476f7665726e6f72427261766f3a3a70726f706f73653a2050726f706f73616c60448201527f494420636f6c6c73696f6e0000000000000000000000000000000000000000006064820152608401610a71565b818160000181905550338160010160006101000a8154816001600160a01b0302191690836001600160a01b03160217905550600081600201819055508c81600301908051906020019061164b929190613910565b508b5161166190600483019060208f0190613975565b508a5161167790600583019060208e01906139b0565b50895161168d90600683019060208d0190613a02565b5083816007018190555082816008018190555060008160090181905550600081600a0181905550600081600b0181905550600081600c0160006101000a81548160ff021916908315150217905550600081600c0160016101000a81548160ff0219169083151502179055508781600d01819055508681600e01819055508060000154600b60008360010160009054906101000a90046001600160a01b03166001600160a01b03166001600160a01b03168152602001908152602001600020819055507fbaab6dcd2ae57433cc1372e25bc5139c3bd664075695546fde8821591a226e388160000154338f8f8f8f8f60405161178e979695949392919061438d565b60405180910390a1549c9b505050505050505050505050565b600081600754101580156117bc575060065482115b61182e5760405162461bcd60e51b815260206004820152602960248201527f476f7665726e6f72427261766f3a3a73746174653a20696e76616c696420707260448201527f6f706f73616c20696400000000000000000000000000000000000000000000006064820152608401610a71565b6000828152600a60205260409020600c81015460ff16156118525750600292915050565b806007015443116118665750600092915050565b8060080154431161187a5750600192915050565b80600a0154816009015411158061189e57506954b40b1f852bda0000008160090154105b156118ac5750600392915050565b80600201546000036118c15750600492915050565b600c810154610100900460ff16156118dc5750600792915050565b6002810154600854604080517fc1a287e2000000000000000000000000000000000000000000000000000000008152905161196f93926001600160a01b03169163c1a287e29160048083019260209291908290030181865afa158015611946573d6000803e3d6000fd5b505050506040513d601f19601f8201168201806040525081019061196a9190614411565b6132b7565b421061197e5750600692915050565b50600592915050565b50919050565b6007611998826117a7565b60078111156119a9576119a961406a565b03611a1c5760405162461bcd60e51b815260206004820152603660248201527f476f7665726e6f72427261766f3a3a63616e63656c3a2063616e6e6f7420636160448201527f6e63656c2065786563757465642070726f706f73616c000000000000000000006064820152608401610a71565b6000818152600a6020526040902060018101546001600160a01b03163314611ce15760018101546001600160a01b03166000908152600c6020526040902054421015611baf576005546009546001838101546001600160a01b039283169263782d6fe192911690611a8e904390613254565b6040517fffffffff0000000000000000000000000000000000000000000000000000000060e085901b1681526001600160a01b0390921660048301526024820152604401602060405180830381865afa158015611aef573d6000803e3d6000fd5b505050506040513d601f19601f82011682018060405250810190611b139190614330565b6bffffffffffffffffffffffff16108015611b385750600d546001600160a01b031633145b611baa5760405162461bcd60e51b815260206004820152602b60248201527f476f7665726e6f72427261766f3a3a63616e63656c3a2077686974656c69737460448201527f65642070726f706f7365720000000000000000000000000000000000000000006064820152608401610a71565b611ce1565b6005546009546001838101546001600160a01b039283169263782d6fe192911690611bdb904390613254565b6040517fffffffff0000000000000000000000000000000000000000000000000000000060e085901b1681526001600160a01b0390921660048301526024820152604401602060405180830381865afa158015611c3c573d6000803e3d6000fd5b505050506040513d601f19601f82011682018060405250810190611c609190614330565b6bffffffffffffffffffffffff1610611ce15760405162461bcd60e51b815260206004820152602f60248201527f476f7665726e6f72427261766f3a3a63616e63656c3a2070726f706f7365722060448201527f61626f7665207468726573686f6c6400000000000000000000000000000000006064820152608401610a71565b600c8101805460ff1916600117905560005b6003820154811015611e0c576008546003830180546001600160a01b039092169163591fcdfe919084908110611d2b57611d2b61442a565b6000918252602090912001546004850180546001600160a01b039092169185908110611d5957611d5961442a565b9060005260206000200154856005018581548110611d7957611d7961442a565b90600052602060002001866006018681548110611d9857611d9861442a565b9060005260206000200187600201546040518663ffffffff1660e01b8152600401611dc79594939291906144bd565b600060405180830381600087803b158015611de157600080fd5b505af1158015611df5573d6000803e3d6000fd5b505050508080611e0490614374565b915050611cf3565b506040518281527f789cf55be980739dad1d0699b93b58e806b51c9d96619bfa8fe0a28abaa7b30c90602001610b3b565b6000546001600160a01b0316331480611e605750600d546001600160a01b031633145b611ed25760405162461bcd60e51b815260206004820152603960248201527f476f7665726e6f72427261766f3a3a5f73657457686974656c6973744163636f60448201527f756e7445787069726174696f6e3a2061646d696e206f6e6c79000000000000006064820152608401610a71565b6001600160a01b0382166000818152600c6020908152604091829020849055815192835282018390527f4e7b7545bc5744d0e30425959f4687475774b6c7edad77d24cb51c7d967d45159101610b3b565b611f2b613316565b604080518082018252601781527f4c6561662044414f20476f7665726e6f7220427261766f00000000000000000060209182015281517f8cad95687ba82c2ce50e74f7b754645e5117c3a5bec8151c0726d5857980a866818301527f6faa7c2a3962b3a565212e7830ccf8a18db5dd0fd7f781239b660fe79fa987f081840152466060820152306080808301919091528351808303909101815260a0820184528051908301207f150214d74d59b7d1e90c73fc22ef3d991dd0a76b046543d4d80ab92d2a50328f60c083015260e082018b905260ff8a1661010080840191909152845180840390910181526101208301909452835193909201929092207f19010000000000000000000000000000000000000000000000000000000000006101408401526101428301829052610162830181905290916000906101820160408051601f198184030181528282528051602091820120600080855291840180845281905260ff8a169284019290925260608301889052608083018790529092509060019060a0016020604051602081039080840390855afa1580156120d3573d6000803e3d6000fd5b5050604051601f1901519150506001600160a01b03811661215c5760405162461bcd60e51b815260206004820152602f60248201527f476f7665726e6f72427261766f3a3a63617374566f746542795369673a20696e60448201527f76616c6964207369676e617475726500000000000000000000000000000000006064820152608401610a71565b6121688b8a8a3361336f565b6121b45760405162461bcd60e51b815260206004820152601460248201527f566f74696e6720636865636b73206661696c65640000000000000000000000006044820152606401610a71565b60006121c2338d8d8d613418565b604080518e815260ff8e1660208201529081018290526080606082018190526000908201529091506001600160a01b038316907fb8e138887d0aa13bab447e82de9d5c1777041ecd21ca36ba824ff1e6c07ddda49060a00160405180910390a250505050506122316001600e55565b50505050505050565b6000546001600160a01b031633146122ba5760405162461bcd60e51b815260206004820152603060248201527f476f7665726e6f72427261766f3a3a5f73657457686974656c6973744775617260448201527f6469616e3a2061646d696e206f6e6c79000000000000000000000000000000006064820152608401610a71565b600d80546001600160a01b038381166001600160a01b031983168117909355604080519190921680825260208201939093527f80a07e73e552148844a9c216d9724212d609cfa54e9c1a2e97203bdd2c4ad3419101610b3b565b61231c613316565b6123288483833361336f565b6123745760405162461bcd60e51b815260206004820152601460248201527f566f74696e6720636865636b73206661696c65640000000000000000000000006044820152606401610a71565b337fb8e138887d0aa13bab447e82de9d5c1777041ecd21ca36ba824ff1e6c07ddda485856123a484838389613418565b6040805193845260ff90921660208401529082015260806060820181905260009082015260a00160405180910390a26123dd6001600e55565b50505050565b6000546001600160a01b031633146124505760405162461bcd60e51b815260206004820152602a60248201527f476f7665726e6f72427261766f3a5f73657450656e64696e6741646d696e3a2060448201526961646d696e206f6e6c7960b01b6064820152608401610a71565b600180546001600160a01b038381166001600160a01b031983168117909355604080519190921680825260208201939093527fca4f2f25d0898edd99413412fb94012f9e54ec8142f9b093e7720646a95b16a99101610b3b565b6008546001600160a01b0316156125295760405162461bcd60e51b815260206004820152603360248201527f476f7665726e6f72427261766f3a3a696e697469616c697a653a2063616e206f60448201527f6e6c7920696e697469616c697a65206f6e6365000000000000000000000000006064820152608401610a71565b6000546001600160a01b031633146125a95760405162461bcd60e51b815260206004820152602560248201527f476f7665726e6f72427261766f3a3a696e697469616c697a653a2061646d696e60448201527f206f6e6c790000000000000000000000000000000000000000000000000000006064820152608401610a71565b6001600160a01b0385166126255760405162461bcd60e51b815260206004820152603360248201527f476f7665726e6f72427261766f3a3a696e697469616c697a653a20696e76616c60448201527f69642074696d656c6f636b2061646472657373000000000000000000000000006064820152608401610a71565b6001600160a01b0384166126a15760405162461bcd60e51b815260206004820152602f60248201527f476f7665726e6f72427261766f3a3a696e697469616c697a653a20696e76616c60448201527f6964204c44414f206164647265737300000000000000000000000000000000006064820152608401610a71565b61168083101580156126b6575062013b008311155b6127285760405162461bcd60e51b815260206004820152603060248201527f476f7665726e6f72427261766f3a3a696e697469616c697a653a20696e76616c60448201527f696420766f74696e6720706572696f64000000000000000000000000000000006064820152608401610a71565b6001821015801561273b5750619d808211155b6127ad5760405162461bcd60e51b815260206004820152602f60248201527f476f7665726e6f72427261766f3a3a696e697469616c697a653a20696e76616c60448201527f696420766f74696e672064656c617900000000000000000000000000000000006064820152608401610a71565b683635c9adc5dea0000081101580156127d0575069152d02c7e14af68000008111155b6128425760405162461bcd60e51b815260206004820152603560248201527f476f7665726e6f72427261766f3a3a696e697469616c697a653a20696e76616c60448201527f69642070726f706f73616c207468726573686f6c6400000000000000000000006064820152608401610a71565b600880546001600160a01b039687166001600160a01b0319918216179091556009805495909616941693909317909355600455600391909155600555565b600461288b826117a7565b600781111561289c5761289c61406a565b146129365760405162461bcd60e51b8152602060048201526044602482018190527f476f7665726e6f72427261766f3a3a71756575653a2070726f706f73616c2063908201527f616e206f6e6c792062652071756575656420696620697420697320737563636560648201527f6564656400000000000000000000000000000000000000000000000000000000608482015260a401610a71565b6000818152600a6020908152604080832060085482517f6a42b8f800000000000000000000000000000000000000000000000000000000815292519194936129ae9342936001600160a01b0390931692636a42b8f8926004808401939192918290030181865afa158015611946573d6000803e3d6000fd5b905060005b6003830154811015612b7857612b668360030182815481106129d7576129d761442a565b6000918252602090912001546004850180546001600160a01b039092169184908110612a0557612a0561442a565b9060005260206000200154856005018481548110612a2557612a2561442a565b906000526020600020018054612a3a906142fc565b80601f0160208091040260200160405190810160405280929190818152602001828054612a66906142fc565b8015612ab35780601f10612a8857610100808354040283529160200191612ab3565b820191906000526020600020905b815481529060010190602001808311612a9657829003601f168201915b5050505050866006018581548110612acd57612acd61442a565b906000526020600020018054612ae2906142fc565b80601f0160208091040260200160405190810160405280929190818152602001828054612b0e906142fc565b8015612b5b5780601f10612b3057610100808354040283529160200191612b5b565b820191906000526020600020905b815481529060010190602001808311612b3e57829003601f168201915b5050505050866135f5565b80612b7081614374565b9150506129b3565b506002820181905560408051848152602081018390527f9a2e42fd6722813d69113e7d0079d3d940171428df7373df9c7f7617cfda2892910160405180910390a1505050565b604080516060808201835260008083526020808401829052928401819052858152600a83528381206001600160a01b0386168252600f01835283902083519182018452805460ff808216151584526101009091041692820192909252600190910154918101919091525b92915050565b6001546001600160a01b031633148015612c4757503315155b612cb95760405162461bcd60e51b815260206004820152602e60248201527f476f7665726e6f72427261766f3a5f61636365707441646d696e3a2070656e6460448201527f696e672061646d696e206f6e6c790000000000000000000000000000000000006064820152608401610a71565b60008054600180546001600160a01b038082166001600160a01b031980861682179096559490911690915560408051919092168082526020820184905292917ff9ffabca9c8276e99321725bcb43fb076a6c66a54b7f21c4e8146d8519b417dc910160405180910390a1600154604080516001600160a01b03808516825290921660208301527fca4f2f25d0898edd99413412fb94012f9e54ec8142f9b093e7720646a95b16a99101610b3b565b612d6f613316565b612d7b8685853361336f565b612dc75760405162461bcd60e51b815260206004820152601460248201527f566f74696e6720636865636b73206661696c65640000000000000000000000006044820152606401610a71565b337fb8e138887d0aa13bab447e82de9d5c1777041ecd21ca36ba824ff1e6c07ddda48787612df78483838b613418565b8686604051612e0a95949392919061450a565b60405180910390a2612e1c6001600e55565b505050505050565b6000546001600160a01b03163314612ea35760405162461bcd60e51b8152602060048201526024808201527f476f7665726e6f72427261766f3a3a5f696e6974696174653a2061646d696e2060448201527f6f6e6c79000000000000000000000000000000000000000000000000000000006064820152608401610a71565b60065415612f195760405162461bcd60e51b815260206004820152603060248201527f476f7665726e6f72427261766f3a3a5f696e6974696174653a2063616e206f6e60448201527f6c7920696e697469617465206f6e6365000000000000000000000000000000006064820152608401610a71565b806001600160a01b031663da35c6646040518163ffffffff1660e01b81526004016020604051808303816000875af1158015612f59573d6000803e3d6000fd5b505050506040513d601f19601f82011682018060405250810190612f7d9190614411565b6007819055600655600854604080517f0e18b68100000000000000000000000000000000000000000000000000000000815290516001600160a01b0390921691630e18b6819160048082019260009290919082900301818387803b158015612fe457600080fd5b505af1158015612ff8573d6000803e3d6000fd5b5050505050565b600561300a826117a7565b600781111561301b5761301b61406a565b146130b45760405162461bcd60e51b815260206004820152604560248201527f476f7665726e6f72427261766f3a3a657865637574653a2070726f706f73616c60448201527f2063616e206f6e6c79206265206578656375746564206966206974206973207160648201527f7565756564000000000000000000000000000000000000000000000000000000608482015260a401610a71565b6000818152600a60205260408120600c8101805461ff001916610100179055905b6003820154811015613223576008546004830180546001600160a01b0390921691630825f38f91908490811061310d5761310d61442a565b906000526020600020015484600301848154811061312d5761312d61442a565b6000918252602090912001546004860180546001600160a01b03909216918690811061315b5761315b61442a565b906000526020600020015486600501868154811061317b5761317b61442a565b9060005260206000200187600601878154811061319a5761319a61442a565b9060005260206000200188600201546040518763ffffffff1660e01b81526004016131c99594939291906144bd565b60006040518083038185885af11580156131e7573d6000803e3d6000fd5b50505050506040513d6000823e601f3d908101601f191682016040526132109190810190614551565b508061321b81614374565b9150506130d5565b506040518281527f712ae1383f79ac853f8d882153778e0260ef8f03b504e2866e0593e04d2b291f90602001610b3b565b6000828211156132a65760405162461bcd60e51b815260206004820152601560248201527f7375627472616374696f6e20756e646572666c6f7700000000000000000000006044820152606401610a71565b6132b082846145bf565b9392505050565b6000806132c483856145d2565b9050838110156132b05760405162461bcd60e51b815260206004820152601160248201527f6164646974696f6e206f766572666c6f770000000000000000000000000000006044820152606401610a71565b6002600e54036133685760405162461bcd60e51b815260206004820152601f60248201527f5265656e7472616e637947756172643a207265656e7472616e742063616c6c006044820152606401610a71565b6002600e55565b6000848152600a602052604081208161338a8487878a6137c5565b600081815260108401602052604090205490915060ff16156133ee5760405162461bcd60e51b815260206004820152601160248201527f566f746520616c726561647920636173740000000000000000000000000000006044820152606401610a71565b6000908152601090910160205260409020805460ff1916600190811790915590505b949350505050565b6000613422613316565b600161342d856117a7565b600781111561343e5761343e61406a565b146134b15760405162461bcd60e51b815260206004820152603160248201527f476f7665726e6f72427261766f3a3a63617374566f7465496e7465726e616c3a60448201527f20766f74696e6720697320636c6f7365640000000000000000000000000000006064820152608401610a71565b60028360ff16111561352b5760405162461bcd60e51b815260206004820152603260248201527f476f7665726e6f72427261766f3a3a63617374566f7465496e7465726e616c3a60448201527f20696e76616c696420766f7465207479706500000000000000000000000000006064820152608401610a71565b6000848152600a602090815260408083206001600160a01b0389168452600f8101909252909120805460ff16156135ca5760405162461bcd60e51b815260206004820152603460248201527f476f7665726e6f72427261766f3a3a63617374566f7465496e7465726e616c3a60448201527f20766f74657220616c726561647920766f7465640000000000000000000000006064820152608401610a71565b805460ff86166101000261ffff19909116176001908117825501839055508190506134106001600e55565b6008546040516001600160a01b039091169063f2b065379061362390889088908890889088906020016145e5565b604051602081830303815290604052805190602001206040518263ffffffff1660e01b815260040161365791815260200190565b602060405180830381865afa158015613674573d6000803e3d6000fd5b505050506040513d601f19601f82011682018060405250810190613698919061461f565b156137315760405162461bcd60e51b815260206004820152605560248201527f476f7665726e6f72427261766f3a3a71756575654f72526576657274496e746560448201527f726e616c3a206964656e746963616c2070726f706f73616c20616374696f6e2060648201527f616c726561647920717565756564206174206574610000000000000000000000608482015260a401610a71565b6008546040517f3a66f9010000000000000000000000000000000000000000000000000000000081526001600160a01b0390911690633a66f9019061378290889088908890889088906004016145e5565b6020604051808303816000875af11580156137a1573d6000803e3d6000fd5b505050506040513d601f19601f82011682018060405250810190612e1c9190614411565b6040516bffffffffffffffffffffffff19606086901b16602082015260348101849052600090819060540160405160208183030381529060405280519060200120905061382984600a6000868152602001908152602001600020600e01548361387e565b6138755760405162461bcd60e51b815260206004820152601560248201527f496e76616c6964204d65726b6c652050726f6f662e00000000000000000000006044820152606401610a71565b95945050505050565b60008261388b8584613894565b14949350505050565b600081815b84518110156138d9576138c5828683815181106138b8576138b861442a565b60200260200101516138e1565b9150806138d181614374565b915050613899565b509392505050565b60008183106138fd5760008281526020849052604090206132b0565b60008381526020839052604090206132b0565b828054828255906000526020600020908101928215613965579160200282015b8281111561396557825182546001600160a01b0319166001600160a01b03909116178255602090920191600190910190613930565b50613971929150613a54565b5090565b828054828255906000526020600020908101928215613965579160200282015b82811115613965578251825591602001919060010190613995565b8280548282559060005260206000209081019282156139f6579160200282015b828111156139f657825182906139e6908261468c565b50916020019190600101906139d0565b50613971929150613a69565b828054828255906000526020600020908101928215613a48579160200282015b82811115613a485782518290613a38908261468c565b5091602001919060010190613a22565b50613971929150613a86565b5b808211156139715760008155600101613a55565b80821115613971576000613a7d8282613aa3565b50600101613a69565b80821115613971576000613a9a8282613aa3565b50600101613a86565b508054613aaf906142fc565b6000825580601f10613abf575050565b601f016020900490600052602060002090810190613add9190613a54565b50565b600060208284031215613af257600080fd5b5035919050565b60005b83811015613b14578181015183820152602001613afc565b50506000910152565b60008151808452613b35816020860160208601613af9565b601f01601f19169290920160200192915050565b6020815260006132b06020830184613b1d565b80356001600160a01b0381168114613b7357600080fd5b919050565b600060208284031215613b8a57600080fd5b6132b082613b5c565b600081518084526020808501945080840160005b83811015613bcc5781516001600160a01b031687529582019590820190600101613ba7565b509495945050505050565b600081518084526020808501945080840160005b83811015613bcc57815187529582019590820190600101613beb565b600082825180855260208086019550808260051b84010181860160005b84811015613c5257601f19868403018952613c40838351613b1d565b98840198925090830190600101613c24565b5090979650505050505050565b608081526000613c726080830187613b93565b8281036020840152613c848187613bd7565b90508281036040840152613c988186613c07565b90508281036060840152613cac8185613c07565b979650505050505050565b634e487b7160e01b600052604160045260246000fd5b604051601f8201601f1916810167ffffffffffffffff81118282101715613cf657613cf6613cb7565b604052919050565b600067ffffffffffffffff821115613d1857613d18613cb7565b5060051b60200190565b600082601f830112613d3357600080fd5b81356020613d48613d4383613cfe565b613ccd565b82815260059290921b84018101918181019086841115613d6757600080fd5b8286015b84811015613d8957613d7c81613b5c565b8352918301918301613d6b565b509695505050505050565b600082601f830112613da557600080fd5b81356020613db5613d4383613cfe565b82815260059290921b84018101918181019086841115613dd457600080fd5b8286015b84811015613d895780358352918301918301613dd8565b600067ffffffffffffffff821115613e0957613e09613cb7565b50601f01601f191660200190565b6000613e25613d4384613def565b9050828152838383011115613e3957600080fd5b828260208301376000602084830101529392505050565b600082601f830112613e6157600080fd5b6132b083833560208501613e17565b600082601f830112613e8157600080fd5b81356020613e91613d4383613cfe565b82815260059290921b84018101918181019086841115613eb057600080fd5b8286015b84811015613d8957803567ffffffffffffffff811115613ed45760008081fd5b613ee28986838b0101613e50565b845250918301918301613eb4565b600082601f830112613f0157600080fd5b81356020613f11613d4383613cfe565b82815260059290921b84018101918181019086841115613f3057600080fd5b8286015b84811015613d8957803567ffffffffffffffff811115613f545760008081fd5b8701603f81018913613f665760008081fd5b613f77898683013560408401613e17565b845250918301918301613f34565b600080600080600080600060e0888a031215613fa057600080fd5b873567ffffffffffffffff80821115613fb857600080fd5b613fc48b838c01613d22565b985060208a0135915080821115613fda57600080fd5b613fe68b838c01613d94565b975060408a0135915080821115613ffc57600080fd5b6140088b838c01613e70565b965060608a013591508082111561401e57600080fd5b61402a8b838c01613ef0565b955060808a013591508082111561404057600080fd5b5061404d8a828b01613e50565b93505060a0880135915060c0880135905092959891949750929550565b634e487b7160e01b600052602160045260246000fd5b60208101600883106140a257634e487b7160e01b600052602160045260246000fd5b91905290565b600080604083850312156140bb57600080fd5b6140c483613b5c565b946020939093013593505050565b803560ff81168114613b7357600080fd5b600080600080600080600060e0888a0312156140fe57600080fd5b8735965061410e602089016140d2565b955060408801359450606088013567ffffffffffffffff81111561413157600080fd5b61413d8a828b01613d94565b94505061414c608089016140d2565b925060a0880135915060c0880135905092959891949750929550565b6000806000806080858703121561417e57600080fd5b8435935061418e602086016140d2565b925060408501359150606085013567ffffffffffffffff8111156141b157600080fd5b6141bd87828801613d94565b91505092959194509250565b600080600080600060a086880312156141e157600080fd5b6141ea86613b5c565b94506141f860208701613b5c565b94979496505050506040830135926060810135926080909101359150565b6000806040838503121561422957600080fd5b8235915061423960208401613b5c565b90509250929050565b60008060008060008060a0878903121561425b57600080fd5b8635955061426b602088016140d2565b945060408701359350606087013567ffffffffffffffff8082111561428f57600080fd5b61429b8a838b01613d94565b945060808901359150808211156142b157600080fd5b818901915089601f8301126142c557600080fd5b8135818111156142d457600080fd5b8a60208285010111156142e657600080fd5b6020830194508093505050509295509295509295565b600181811c9082168061431057607f821691505b60208210810361198757634e487b7160e01b600052602260045260246000fd5b60006020828403121561434257600080fd5b81516bffffffffffffffffffffffff811681146132b057600080fd5b634e487b7160e01b600052601160045260246000fd5b6000600182016143865761438661435e565b5060010190565b8781526001600160a01b038716602082015260e0604082015260006143b560e0830188613b93565b82810360608401526143c78188613bd7565b905082810360808401526143db8187613c07565b905082810360a08401526143ef8186613c07565b905082810360c08401526144038185613b1d565b9a9950505050505050505050565b60006020828403121561442357600080fd5b5051919050565b634e487b7160e01b600052603260045260246000fd5b6000815461444d816142fc565b80855260206001838116801561446a5760018114614484576144b2565b60ff1985168884015283151560051b8801830195506144b2565b866000528260002060005b858110156144aa5781548a820186015290830190840161448f565b890184019650505b505050505092915050565b6001600160a01b038616815284602082015260a0604082015260006144e560a0830186614440565b82810360608401526144f78186614440565b9150508260808301529695505050505050565b85815260ff8516602082015283604082015260806060820152816080820152818360a0830137600081830160a090810191909152601f909201601f19160101949350505050565b60006020828403121561456357600080fd5b815167ffffffffffffffff81111561457a57600080fd5b8201601f8101841361458b57600080fd5b8051614599613d4382613def565b8181528560208385010111156145ae57600080fd5b613875826020830160208601613af9565b81810381811115612c2857612c2861435e565b80820180821115612c2857612c2861435e565b6001600160a01b038616815284602082015260a06040820152600061460d60a0830186613b1d565b82810360608401526144f78186613b1d565b60006020828403121561463157600080fd5b815180151581146132b057600080fd5b601f82111561468757600081815260208120601f850160051c810160208610156146685750805b601f850160051c820191505b81811015612e1c57828155600101614674565b505050565b815167ffffffffffffffff8111156146a6576146a6613cb7565b6146ba816146b484546142fc565b84614641565b602080601f8311600181146146ef57600084156146d75750858301515b600019600386901b1c1916600185901b178555612e1c565b600085815260208120601f198616915b8281101561471e578886015182559484019460019091019084016146ff565b508582101561473c5787850151600019600388901b60f8161c191681555b5050505050600190811b0190555056fea264697066735822122000265051770aeaf3cd168e3cd21fa3fade78824093ede39e2eca1a82def9855564736f6c63430008110033",
  "linkReferences": {},
  "deployedLinkReferences": {}
}