{
  "_format": "hh-sol-artifact-1",
  "contractName": "GovernorBravoDelegateStorageV1",
  "sourceName": "contracts/interfaces/GovernorBravoInterfaces.sol",
  "abi": [
    {
      "inputs": [],
      "name": "admin",
      "outputs": [
        {
          "internalType": "address",
          "name": "",
          "type": "address"
        }
      ],
      "stateMutability": "view",
      "type": "function"
    },
    {
      "inputs": [],
      "name": "implementation",
      "outputs": [
        {
          "internalType": "address",
          "name": "",
          "type": "address"
        }
      ],
      "stateMutability": "view",
      "type": "function"
    },
    {
      "inputs": [],
      "name": "initialProposalId",
      "outputs": [
        {
          "internalType": "uint256",
          "name": "",
          "type": "uint256"
        }
      ],
      "stateMutability": "view",
      "type": "function"
    },
    {
      "inputs": [
        {
          "internalType": "address",
          "name": "",
          "type": "address"
        }
      ],
      "name": "latestProposalIds",
      "outputs": [
        {
          "internalType": "uint256",
          "name": "",
          "type": "uint256"
        }
      ],
      "stateMutability": "view",
      "type": "function"
    },
    {
      "inputs": [],
      "name": "ldao",
      "outputs": [
        {
          "internalType": "contract CompInterface",
          "name": "",
          "type": "address"
        }
      ],
      "stateMutability": "view",
      "type": "function"
    },
    {
      "inputs": [],
      "name": "pendingAdmin",
      "outputs": [
        {
          "internalType": "address",
          "name": "",
          "type": "address"
        }
      ],
      "stateMutability": "view",
      "type": "function"
    },
    {
      "inputs": [],
      "name": "proposalCount",
      "outputs": [
        {
          "internalType": "uint256",
          "name": "",
          "type": "uint256"
        }
      ],
      "stateMutability": "view",
      "type": "function"
    },
    {
      "inputs": [],
      "name": "proposalThreshold",
      "outputs": [
        {
          "internalType": "uint256",
          "name": "",
          "type": "uint256"
        }
      ],
      "stateMutability": "view",
      "type": "function"
    },
    {
      "inputs": [
        {
          "internalType": "uint256",
          "name": "",
          "type": "uint256"
        }
      ],
      "name": "proposals",
      "outputs": [
        {
          "internalType": "uint256",
          "name": "id",
          "type": "uint256"
        },
        {
          "internalType": "address",
          "name": "proposer",
          "type": "address"
        },
        {
          "internalType": "uint256",
          "name": "eta",
          "type": "uint256"
        },
        {
          "internalType": "uint256",
          "name": "startBlock",
          "type": "uint256"
        },
        {
          "internalType": "uint256",
          "name": "endBlock",
          "type": "uint256"
        },
        {
          "internalType": "uint256",
          "name": "forVotes",
          "type": "uint256"
        },
        {
          "internalType": "uint256",
          "name": "againstVotes",
          "type": "uint256"
        },
        {
          "internalType": "uint256",
          "name": "abstainVotes",
          "type": "uint256"
        },
        {
          "internalType": "bool",
          "name": "canceled",
          "type": "bool"
        },
        {
          "internalType": "bool",
          "name": "executed",
          "type": "bool"
        },
        {
          "internalType": "uint256",
          "name": "snapshotBlockNumber",
          "type": "uint256"
        },
        {
          "internalType": "bytes32",
          "name": "merkleRoot",
          "type": "bytes32"
        }
      ],
      "stateMutability": "view",
      "type": "function"
    },
    {
      "inputs": [],
      "name": "timelock",
      "outputs": [
        {
          "internalType": "contract TimelockInterface",
          "name": "",
          "type": "address"
        }
      ],
      "stateMutability": "view",
      "type": "function"
    },
    {
      "inputs": [],
      "name": "votingDelay",
      "outputs": [
        {
          "internalType": "uint256",
          "name": "",
          "type": "uint256"
        }
      ],
      "stateMutability": "view",
      "type": "function"
    },
    {
      "inputs": [],
      "name": "votingPeriod",
      "outputs": [
        {
          "internalType": "uint256",
          "name": "",
          "type": "uint256"
        }
      ],
      "stateMutability": "view",
      "type": "function"
    }
  ],
  "bytecode": "0x608060405234801561001057600080fd5b50610313806100206000396000f3fe608060405234801561001057600080fd5b50600436106100d45760003560e01c80635c60da1b11610081578063da35c6641161005b578063da35c6641461026f578063f851a44014610278578063fc4eee421461028b57600080fd5b80635c60da1b14610240578063b58131b014610253578063d33219b41461025c57600080fd5b806317977c61116100b257806317977c611461020457806326782247146102245780633932abb11461023757600080fd5b8063013cf08b146100d957806302a251a3146101c25780630cc89a07146101d9575b600080fd5b6101586100e7366004610294565b600a60208190526000918252604090912080546001820154600283015460078401546008850154600986015496860154600b870154600c880154600d890154600e9099015497996001600160a01b039097169895979496939593949293919260ff808316936101009093041691908c565b604080519c8d526001600160a01b03909b1660208d0152998b019890985260608a0196909652608089019490945260a088019290925260c087015260e086015215156101008501521515610120840152610140830152610160820152610180015b60405180910390f35b6101cb60045481565b6040519081526020016101b9565b6009546101ec906001600160a01b031681565b6040516001600160a01b0390911681526020016101b9565b6101cb6102123660046102ad565b600b6020526000908152604090205481565b6001546101ec906001600160a01b031681565b6101cb60035481565b6002546101ec906001600160a01b031681565b6101cb60055481565b6008546101ec906001600160a01b031681565b6101cb60075481565b6000546101ec906001600160a01b031681565b6101cb60065481565b6000602082840312156102a657600080fd5b5035919050565b6000602082840312156102bf57600080fd5b81356001600160a01b03811681146102d657600080fd5b939250505056fea2646970667358221220b1c417d397ae84c10bdc9dbe3f04781243add452c3381a20707c95f8d32d386764736f6c63430008110033",
  "linkReferences": {},
  "deployedLinkReferences": {}
}