{
  "_format": "hh-sol-artifact-1",
  "contractName": "GovernorBravoDelegatorStorage",
  "sourceName": "contracts/interfaces/GovernorBravoInterfaces.sol",
  "abi": [
    {
      "inputs": [],
      "name": "admin",
      "outputs": [
        {
          "internalType": "address",
          "name": "",
          "type": "address"
        }
      ],
      "stateMutability": "view",
      "type": "function"
    },
    {
      "inputs": [],
      "name": "implementation",
      "outputs": [
        {
          "internalType": "address",
          "name": "",
          "type": "address"
        }
      ],
      "stateMutability": "view",
      "type": "function"
    },
    {
      "inputs": [],
      "name": "pendingAdmin",
      "outputs": [
        {
          "internalType": "address",
          "name": "",
          "type": "address"
        }
      ],
      "stateMutability": "view",
      "type": "function"
    }
  ],
  "bytecode": "0x608060405234801561001057600080fd5b5060fd8061001f6000396000f3fe6080604052348015600f57600080fd5b5060043610603c5760003560e01c8063267822471460415780635c60da1b146089578063f851a4401460a8575b600080fd5b60015460609073ffffffffffffffffffffffffffffffffffffffff1681565b60405173ffffffffffffffffffffffffffffffffffffffff909116815260200160405180910390f35b60025460609073ffffffffffffffffffffffffffffffffffffffff1681565b60005460609073ffffffffffffffffffffffffffffffffffffffff168156fea26469706673582212202b771756c5280e71306b560cf46d624129b8100e303d35685e7f07a6df735cf264736f6c63430008110033",
  "linkReferences": {},
  "deployedLinkReferences": {}
}